:100000000C94B5000C9460020C94D2000C94D200B5
:100010000C94D2000C94D2000C94D2000C94D20018
:100020000C94D2000C94D2000C94D2000C94D20008
:100030000C94D2000C94D2000C94D2000C94D200F8
:100040000C94D2000C94D2000C94D2000C94D200E8
:100050000C94D2000C94D2000C94D2000C94D200D8
:100060000C94D2000C94D2006E616E00696E660032
:1000700000407A10F35A00A0724E18090010A5D45F
:10008000E80000E87648170000E40B54020000CABC
:100090009A3B000000E1F505000080969800000002
:1000A00040420F000000A086010000001027000061
:1000B0000000E803000000006400000000000A00E7
:1000C000000000000100000000002C76D888DC67EA
:1000D0004F0823DFC1DFAE59E1B1B796E5E3E45342
:1000E000C63AE651997696E8E6C28426EB898C9B5F
:1000F00062ED407C6FFCEFBC9C9F40F2BAA56FA5FF
:10010000F490055A2AF75C936B6CF9676DC11BFC80
:10011000E0E40D47FEF520E6B500D0ED902E03009B
:10012000943577050080841E080000204E0A0000E8
:1001300000C80C333333330F986E12831141EF8DA7
:100140002114893BE65516CFFEE6DB18D1844B38E7
:100150001BF77C1D901DA4BBE424203284725E2218
:100160008100C9F124ECA1E53D2711241FBECFEF8A
:10017000D8E0DEBFCDBF13E0A0E0B1E0E6E5FDE1F1
:1001800002C005900D92A63BB107D9F724E0A6EB7B
:10019000B3E001C01D92AC3BB207E1F70E940D0B2A
:1001A0000C94A90E0C9400000E94E40260E080E030
:1001B0000E9455038FEF92E09F938F930E94EE046D
:1001C0000F900F9008951092C50087E68093C400A9
:1001D00080E18093C1008EE08093C200089584E0A6
:1001E0008BB982E08093690081E08DBB0895809196
:1001F000C00087FFFCCF8091C60008959FEB980F49
:10020000963010F4875308959FE9980F963010F4B4
:100210008755089580530895CF93DF93EC016230A2
:100220007105C1F054F46130710539F560E082E088
:100230000E94550385E193E01AC06330710589F08F
:1002400064307105D1F460E082E00E94550387E5D7
:1002500093E00DC060E082E00E9455038BE293E0E2
:1002600006C060E082E00E94550381E493E09F9322
:100270008F930E94EE040F900F9060E084E00E9444
:100280005503DF93CF938DE693E09F938F930E9466
:10029000EE040F900F900F900F90DF91CF91089583
:1002A0007F928F929F92AF92BF92CF92DF92EF9206
:1002B000FF920F931F93CF93DF93CDB7DEB7CDB6E9
:1002C000DEB6E6EBF3E001900020E9F78DB79EB7CC
:1002D0008E1B9F0B9C0129543C4F0FB6F8943EBFD8
:1002E0000FBE2DBF0DB71EB70F5F1F4F87EBA82E98
:1002F00083E0B82E780196EB892E93E0992EF401D5
:1003000001900020E9F73197E65BF340C701801BBD
:10031000910BE817F90718F1F50181915F01F701D9
:100320008A3211F0808317C01082F50180810E940B
:10033000FE00782EF50181810E94FE00082E000C3F
:10034000990BF72D20E1F202800D911D112490935D
:10035000B9048093B8043FEFE31AF30AD0CFF80151
:1003600001900020E9F73197E01BF10BD80180E004
:1003700090E09D01201B310BE217F30738F02D911F
:10038000022E000C330B82279327F3CF2091B80461
:100390003091B90460E08217930769F483E00E940A
:1003A000550386E793E09F938F930E94EE040F908E
:1003B0000F9081E00CC083E00E94550386E893E033
:1003C0009F938F930E94EE040F900F9080E00FB6E2
:1003D000F894DEBE0FBECDBEDF91CF911F910F917D
:1003E000FF90EF90DF90CF90BF90AF909F908F9055
:1003F0007F900895EF92FF920F931F93CF93DF9317
:100400008C0186EBE82E83E0F82EC0E0D0E00E945D
:10041000F700F70181937F01209709F442C0FE01A4
:100420003197D70112979C919D30D9F58A30C9F543
:10043000EA54FC4F10820230110511F124F401300E
:10044000110561F034C003301105F9F004301105D5
:1004500071F546E050E06EEA73E01BC046E050E004
:1004600069E973E086EB93E00E94F60D892BF9F4BD
:10047000DF91CF911F910F91FF90EF900C9450015D
:1004800046E050E060EA73E004C046E050E067EA0E
:1004900073E086EB93E00E94F60D21E0892B41F09A
:1004A00006C02196C115F1E0DF0709F0B0CF20E0CA
:1004B000822FDF91CF911F910F91FF90EF900895C0
:1004C0001F920F920FB60F9211248F939F93EF9369
:1004D000FF93E89899B1EFECF7E03197F1F700C09E
:1004E000000089B19470847098130EC0809100014F
:1004F0009091010101968530910514F081E090E022
:100500009093010180930001E89AFF91EF919F91F0
:100510008F910F900FBE0F901F901895CF93C82FFB
:1005200080E00E94FD068C2FCF910C9413070C9451
:1005300086070C944307CF93C82F8CE30E948E024A
:1005400080E00E9443078C2F0E944307CF910C94B8
:100550008607CF93DF9381E20E949B0280E00E9496
:100560009B028FE70E949B0282E20E949B0280E036
:100570000E949B0287E00E949B028CE30E948E02F5
:1005800080E40E944307C0E0D4E080E00E9443077B
:100590002197D9F781E20E949B0280E00E949B0292
:1005A0008FE70E949B0282E20E949B0280E00E94F1
:1005B0009B0287E00E949B028CE30E948E0280E4F3
:1005C000DF91CF910C9443070E94F4068EEA0E94BB
:1005D0009B0285ED0E949B0280E80E949B0288EAB4
:1005E0000E949B028FE30E949B0283ED0E949B026C
:1005F00080E00E949B0280E40E949B028DE80E94A2
:100600009B0284E10E949B0280E20E949B0280E0A8
:100610000E949B0281EA0E949B0288EC0E949B023E
:100620008AED0E949B0282E10E949B0281E80E9467
:100630009B028FEC0E949B0289ED0E949B0281EF3E
:100640000E949B028BED0E949B0280E40E949B0211
:1006500084EA0E949B0286EA0E949B028FEA0E9423
:100660009B020C94A902CF93DF93C82FD62F8093BF
:10067000BA046093BB0481E20E949B028D2F0E940A
:100680009B028FE70E949B0282E20E949B028C2FBA
:100690000E949B0287E00E949B028CE30E948E02D4
:1006A00080E4DF91CF910C944307883018F467FF02
:1006B0000C94330308957F928F929F92AF92BF92D2
:1006C000CF92DF92EF92FF920F931F93CF93DF931E
:1006D000882E7B0127E0281708F4812C912CF70144
:1006E000E90DF11D8081882309F440C0D6E06F0137
:1006F000CD2F6D2F882D0E945503712CF601E70D2B
:10070000F11D0081002329F1C7FD23C0005285E0BF
:10071000089F80011124A12CB12CC7FD10C0F50148
:10072000E00FF11FEE5FFE4F80810E944307CF5F15
:100730009FEFA91AB90A25E0A216B10471F780E06B
:100740000E94430785E38A95F1F70000CF5F739419
:10075000D5CF9FEF29EF80E0915020408040E1F716
:1007600000C00000D15021F69394B9CFDF91CF9112
:100770001F910F91FF90EF90DF90CF90BF90AF90BF
:100780009F908F907F900895883028F48093BA04CA
:1007900060E00C94550308958091BA048F5F8770D0
:1007A0008093BA0460E00C9455030F931F93CF938A
:1007B000DF93C82F8091BB0490E08B37910554F4F0
:1007C000CA3041F0C05285E0C89FE001112400E02A
:1007D00010E005C00E94CC03CA30A1F71AC0F8018E
:1007E000EC0FFD1FEE5FFE4F80810E94430780915A
:1007F000BB048F5F8093BB040F5F1F4F0530110553
:1008000071F780E00E9443078091BB048F5F809363
:10081000BB04DF91CF911F910F910895CF93DF9388
:10082000EC018991882319F00E94D503FACFDF915A
:10083000CF9108954F925F926F927F928F929F9285
:10084000AF92BF92CF92DF92EF92FF920F931F93DE
:10085000CF93DF93CDB7DEB72A970FB6F894DEBFFC
:100860000FBECDBF982E6A017B01122F82E0981235
:1008700021C0AA24A394B12C112309F461C08FEFE5
:10088000810FA50102C0440F551F8A95E2F7052E7E
:10089000000C660B770B4C215D216E217F2181E0DE
:1008A000452B462B472B09F480E0805D0E94D50341
:1008B0001150E2CF452B462B472B11F400E03EC0F0
:1008C000FE0131965F0100E0492C512C612C712C06
:1008D000101749F1C114D104E104F10479F08C2C12
:1008E000C701B601A30192010E94230B69017A019D
:1008F000929E80181124F501808204C01B3038F4C8
:10090000F50110820F5FFFEFAF1ABF0AE1CF102F82
:100910000AC0FE01E10FF11D80818A3038F0895C48
:100920000E94D50311501111F4CF0AC0805DF8CF99
:100930000A3031F080E30E94D5030F5F0113F8CF36
:100940002A960FB6F894DEBF0FBECDBFDF91CF91D0
:100950001F910F91FF90EF90DF90CF90BF90AF90DD
:100960009F908F907F906F905F904F9008958F929F
:100970009F92AF92BF92CF92DF92EF92FF926B0164
:100980007C010E94E90B4B015C012FEFAB01BC0124
:100990008AE00E941A048EE20E94D503C501B401C8
:1009A0000E94180C9B01AC01C701B6010E947C0B90
:1009B00020E034E244E759E40E94A60C0E94E90BCF
:1009C000AB01BC012FEF8AE0FF90EF90DF90CF905A
:1009D000BF90AF909F908F900C941A044F925F92AB
:1009E0006F927F92AF92BF92CF92DF92FF920F935E
:1009F0001F93CF93DF93CDB7DEB7FE017096A19022
:100A0000B1908F01F5018081882309F432C18532CC
:100A100009F014C165018FEFC81AD80AF5012181C8
:100A200080ED820F8A3008F0B6C0F12C80ED820F85
:100A30008A3068F4FAE0FF9E200D112430EDF32E89
:100A4000F20E8FEFC81AD80AF6012081EFCF2835B1
:100A500009F4A6C074F4243409F44FC01CF4223401
:100A6000D9F4BEC0233509F4DEC0253509F478C0B9
:100A7000CAC0263609F4C9C044F4233681F02436AE
:100A800021F1223609F0DDC09CC0253709F453C09E
:100A9000283709F476C0C5C023340CF4E4C05801EB
:100AA000F2E0AF0EB11CF80180810E94D503C4C0F2
:100AB0002935FCF0263609F4A8C0CCF5233679F3A5
:100AC000243609F079C0FF24FA945801F2E0AF0E01
:100AD000B11CF8010081118117FF06C01195019525
:100AE00011098DE20E94D503A801110F660B770B47
:100AF00040C0243451F5FF24FA945801F4E0AF0EBD
:100B0000B11CF801408051806280738077FE0BC079
:100B10007094609450944094411C511C611C711C51
:100B20008DE20E94D5032F2DB301A20123C02537EA
:100B300019F5FF24FA945801F2E0AF0EB11CF80148
:100B40004081518160E070E014C025340CF47EC017
:100B5000233509F468C0253509F055C0FF24FA94FF
:100B60005801F4E0AF0EB11CF8014081518162815F
:100B700073812F2D8AE044C0283709F052C0FF242A
:100B8000FA945801F2E0AF0EB11CF8014081518196
:100B900060E070E00EC0283509F08ACFFF24FA9497
:100BA0005801F4E0AF0EB11CF8014081518162811F
:100BB00073812F2D80E124C0223609F042C0FF242A
:100BC000FA945801F2E0AF0EB11CF8014081518156
:100BD000FFEFFF1202C090E1F92E60E070E00EC05E
:100BE000580184E0A80EB11CF80140815181628156
:100BF0007381FFEFFF1202C080E1F82E2F2D82E0FB
:100C00000E941A0419C02634E1F4580184E0A80EA9
:100C1000B11CF80160817181828193810E94B704C7
:100C20000BC0233771F45801F2E0AF0EB11CF8018C
:100C3000808191810E940E04850103C00E94D5032A
:100C400065015601FFEFAF1ABF0ADCCE223409F06E
:100C500023CF5801F4E0AF0EB11CF801408151815F
:100C600062817381C9CF253261F785E20E94D50385
:100C7000E8CFDF91CF911F910F91FF90DF90CF9040
:100C8000BF90AF907F906F905F904F900895EF92DC
:100C9000FF920F931F93CF93DF93853008F040C0EE
:100CA0006536F0F5C62FD82FD295DD0FD07E68E0DF
:100CB0006D0F80E00E9455034C2F50E060E070E023
:100CC00023E08AE00E941A04C6958C2F86958695AB
:100CD000869507E0081BC77088E090E08C1B91099F
:100CE0001FEF01C0110F8A95EAF7C1E0D45F6D2FA5
:100CF0008C2F0E945503C01728F00C1729F0EE2402
:100D0000EA9403C0E12C01C0E12E8CE0F82E8E2D78
:100D10000E944307FA94F110FACFCF5FC83039F739
:100D2000DF91CF911F910F91FF90EF9008951F9346
:100D3000CF93DF93853048F5653638F5D62FC82F29
:100D4000CC0FCF5F60E08C2F0E94550310E01D1781
:100D500029F08FEF0E9443071F5FF9CF1D2F143634
:100D600029F080E00E9443071F5FF9CF69E68C2FCE
:100D70000E9455034D2F50E060E070E023E08AE0D0
:100D8000DF91CF911F910C941A04DF91CF911F91A5
:100D900008950F931F93CF93DF938C0160E080E061
:100DA0000E9433038CE30E948E0280E40E9443077A
:100DB000E8011C5F89910E944307C017D107D1F752
:100DC000DF91CF911F910F91089587EA0C949B02B8
:100DD00086EA0C949B02CF93C82F81E80E949B0265
:100DE0008C2FCF910C949B02E9EBF0E080818C7FFB
:100DF000808388E48093B80008958093B70480913D
:100E0000BC00846A8093BC008091BC0087FFFCCF4B
:100E10008091B900887F883021F0803111F08EEF09
:100E200008958FEF0895880F9091B704892B8093D0
:100E3000BB008091BC008F7D8093BC008091BC0082
:100E400080688093BC008091BC0087FFFCCF8091BC
:100E5000B704811107C08091B900887F883189F477
:100E60008FEF0895813059F4E091B900E87FE8539D
:100E7000E13138F4F0E0E251FD4F8081089580E0E7
:100E800008958EEF08958093BB008091BC00806828
:100E90008093BC008091BC0087FFFCCFE091B9003B
:100EA000E87FE852E13128F4F0E0E352FD4F808121
:100EB00008958EEF089583E3815031F09091BC0046
:100EC00097FFFACF8DEF08958CEF0895811104C03C
:100ED0008091BC00806403C08091BC008F7B8093B4
:100EE000BC008091BC0080688093BC000E945B07BE
:100EF0008C3F51F08091B900887F803511F08835A2
:100F000019F48091BB0008958EEF08958091BC0084
:100F100080698093BC008091BC0084FFFCCF089561
:100F2000A0E1B0E0E6E9F7E00C94450B7C011B0181
:100F30006A01FC0117821682838181FF44C39E01EE
:100F40002F5F3F4F3901F7019381F10193FD8591A7
:100F500093FF81911F01882309F431C3853239F44D
:100F600093FD859193FF81911F01853239F4B7017B
:100F700090E00E940F0E56016501E5CF10E0512C64
:100F8000912CFFE1F915D8F08B3279F038F48032EA
:100F900079F08332A1F4F92DF0612EC08D3261F029
:100FA000803369F4292D21602DC0392D3260932EB4
:100FB000892D8460982E2AC0E92DE86015C097FC21
:100FC0002DC020ED280F2A3088F496FE06C03AE0A6
:100FD000139F200D1124122F19C08AE0589E200D56
:100FE0001124522EE92DE0629E2E10C08E3231F473
:100FF00096FCE5C2F92DF0649F2E08C08C3621F4D2
:10100000292D2068922E02C0883641F4F10193FD0B
:10101000859193FF81911F018111B3CF9BEB980FB5
:10102000933020F4992D9061805E07C09BE9980F62
:10103000933008F066C1992D9F7E96FF16E09F734E
:10104000992E853619F49064992E08C0863621F4BD
:10105000392F3068932E02C01111115097FE07C02E
:101060001C3350F444244394410E27E00BC0183045
:1010700038F027E017E005C027E09CE3492E02C0C6
:10108000212F412C560184E0A80EB11CF60160818D
:10109000718182819381042DA3010E94130D6C0143
:1010A000F981FC87F0FF02C0F3FF06C091FC06C087
:1010B00092FE06C000E205C00DE203C00BE201C0D3
:1010C00000E08C858C7019F001115AC29BC297FE0A
:1010D00010C04C0CFC85F4FF04C08A81813309F4F4
:1010E0004A94141474F528E0241578F588E0482E05
:1010F0002CC096FC2AC0812F90E08C159D059CF099
:101100003CEFC3163FEFD30674F0892D8068982E0C
:101110000AC0E2E0F0E0EC0FFD1FE10FF11D80815D
:10112000803319F411501111F4CF97FE0EC04424EE
:101130004394410E812F90E0C816D9062CF41C1957
:1011400004C04424439401C010E097FE06C01C1460
:101150001D0434F4C601019605C085E090E002C08C
:1011600081E090E001110196112331F0212F30E050
:101170002F5F3F4F820F931F252D30E0821793077B
:1011800014F4581A01C0512C892D897049F4552046
:1011900039F0B70180E290E00E940F0E5A94F7CF29
:1011A000002329F0B701802F90E00E940F0E93FCDE
:1011B00009C0552039F0B70180E390E00E940F0E7E
:1011C0005A94F7CF97FE4CC04601D7FE02C0812C3F
:1011D000912CC60188199909F301E80FF91FFE87C0
:1011E000ED87960124193109388B2F87012F10E0E4
:1011F0001195019511093FEF8316930629F4B70164
:101200008EE290E00E940F0EC814D9044CF08F8536
:1012100098898815990524F4ED85FE85818101C0A2
:1012200080E3F1E08F1A91082D853E852F5F3F4FB7
:101230003E872D87801691062CF0B70190E00E9422
:101240000F0ED9CFC814D90441F49A81963320F4F3
:10125000953319F43C8534FF81E3B70190E04EC02B
:101260008A81813319F09C859F7E9C87B70190E02D
:101270000E940F0E111105C094FC18C085E690E085
:1012800017C0B7018EE290E00E940F0E1E5F82E051
:1012900001E0080FF301E80FF11D8081B70190E034
:1012A0000E940F0E802F0113F3CFE6CF85E490E06C
:1012B000B7010E940F0ED7FC06C0C114D10441F43F
:1012C000EC85E4FF05C0D194C194D1088DE201C042
:1012D0008BE2B70190E00E940F0E80E32AE0C21675
:1012E000D1042CF08F5FFAE0CF1AD108F7CFB70105
:1012F00090E00E940F0EB701C601C0960E940F0E2B
:1013000054C1833631F0833779F0833509F056C004
:1013100020C0560132E0A30EB11CF6018081898302
:1013200001E010E0630112C05601F2E0AF0EB11C03
:10133000F601C080D18096FE03C0612F70E002C02C
:101340006FEF7FEFC6010E94040E8C01F92DFF772D
:1013500014C0560122E0A20EB11CF601C080D1805B
:1013600096FE03C0612F70E002C06FEF7FEFC601F1
:101370000E94EB0D8C01F92DF0689F2EF3FD1AC031
:10138000852D90E008171907A8F4B70180E290E0D6
:101390000E940F0E5A94F4CFF60197FC859197FEA8
:1013A00081916F01B70190E00E940F0E51105A9485
:1013B000015011090115110579F7F7C0843611F0B4
:1013C000893661F5560197FE09C024E0A20EB11CD2
:1013D000F60160817181828193810AC0F2E0AF0ED3
:1013E000B11CF60160817181072E000C880B990BEE
:1013F000F92DFF769F2E97FF09C0909580957095E7
:1014000061957F4F8F4F9F4FF0689F2E2AE030E00D
:10141000A3010E944B0EC82EC6183FC0092D853768
:1014200021F40F7E2AE030E01DC0097F8F3691F055
:1014300018F4883559F0C3C0803719F0883711F097
:10144000BEC0006104FF09C0046007C094FE08C06C
:10145000066006C028E030E005C020E130E002C0B0
:1014600020E132E0560107FF09C084E0A80EB11C5C
:10147000F601608171818281938108C0F2E0AF0E34
:10148000B11CF6016081718180E090E0A3010E94AF
:101490004B0EC82EC6180F77902E96FE0BC0092D46
:1014A0000E7FC11650F494FE0AC092FC08C0092DAC
:1014B0000E7E05C0DC2C092D03C0DC2C01C0D12E12
:1014C00004FF0DC0FE01EC0DF11D8081803311F48D
:1014D000097E09C002FF06C0D394D39404C0802FB4
:1014E000867809F0D39403FD11C000FF06C01C2DBF
:1014F000D51480F4150D1D190DC0D51458F4B7017D
:1015000080E290E00E940F0ED394F7CFD51410F430
:101510005D1801C0512C04FF10C0B70180E390E0BA
:101520000E940F0E02FF17C001FD03C088E790E084
:1015300002C088E590E0B7010CC0802F867859F092
:1015400001FF02C08BE201C080E207FD8DE2B7011E
:1015500090E00E940F0EC11638F4B70180E390E0CE
:101560000E940F0E1150F7CFCA94F301EC0DF11D3C
:101570008081B70190E00E940F0EC110F5CF15C019
:10158000F4E0F51560F584E0581A93FE1FC00111D0
:1015900027C02C8523FF2AC008E610E0392D3071C2
:1015A000932EF8018491811124C0552009F4E4CCD4
:1015B000B70180E290E00E940F0E5A94F6CFF70137
:1015C0008681978126C08FEF9FEF23C0B70180E20D
:1015D00090E00E940F0E5A945110F8CFD8CF512CA2
:1015E000B701802F90E00E940F0ED3CF0CE610E0E1
:1015F000D5CF91108052B70190E00E940F0E0F5F7F
:101600001F4FCFCF23E0251510F483E0BDCF512C21
:10161000C0CF6096E2E10C94610B0E94D4000E945E
:10162000E3000E94EF007894C0910001D091010185
:10163000CE010E94FA018823B9F3BE0186EB93E044
:101640000E940C01F1CFA1E21A2EAA1BBB1BFD01C7
:101650000DC0AA1FBB1FEE1FFF1FA217B307E40791
:10166000F50720F0A21BB30BE40BF50B661F771FE9
:10167000881F991F1A9469F76095709580959095C9
:101680009B01AC01BD01CF0108952F923F924F9273
:101690005F926F927F928F929F92AF92BF92CF9202
:1016A000DF92EF92FF920F931F93CF93DF93CDB70B
:1016B000DEB7CA1BDB0B0FB6F894DEBF0FBECDBF83
:1016C00009942A88398848885F846E847D848C8454
:1016D0009B84AA84B984C884DF80EE80FD800C815D
:1016E0001B81AA81B981CE0FD11D0FB6F894DEBF40
:1016F0000FBECDBFED0108955058BB27AA270E9409
:10170000940B0C946C0C0E945E0C38F00E94650CDB
:1017100020F039F49F3F19F426F40C945B0C0EF47E
:10172000E095E7FB0C94550CE92F0E947D0C58F3D3
:10173000BA17620773078407950720F079F4A6F5B6
:101740000C949F0C0EF4E0950B2EBA2FA02D0B01DC
:10175000B90190010C01CA01A0011124FF27591BF6
:1017600099F0593F50F4503E68F11A16F040A22FFC
:10177000232F342F4427585FF3CF4695379527956D
:10178000A795F0405395C9F77EF41F16BA0B620B6C
:10179000730B840BBAF09150A1F0FF0FBB1F661FB3
:1017A000771F881FC2F70EC0BA0F621F731F841FF6
:1017B00048F4879577956795B795F7959E3F08F01C
:1017C000B0CF9395880F08F09927EE0F97958795DE
:1017D00008950E94850C88F09F5798F0B92F99279B
:1017E000B751B0F0E1F0660F771F881F991F1AF00C
:1017F000BA95C9F714C0B13091F00E949F0CB1E0C6
:1018000008950C949F0C672F782F8827B85F39F0C4
:10181000B93FCCF3869577956795B395D9F73EF4A4
:1018200090958095709561957F4F8F4F9F4F08954C
:10183000E89409C097FB3EF490958095709561956A
:101840007F4F8F4F9F4F9923A9F0F92F96E9BB2720
:101850009395F695879577956795B795F111F8CF9C
:10186000FAF4BB0F11F460FF1BC06F5F7F4F8F4F07
:101870009F4F16C0882311F096E911C0772321F0FD
:101880009EE8872F762F05C0662371F096E8862F95
:1018900070E060E02AF09A95660F771F881FDAF7EC
:1018A000880F9695879597F9089597F99F6780E82F
:1018B00070E060E008959FEF80EC089500240A94A2
:1018C0001616170618060906089500240A9412161B
:1018D0001306140605060895092E0394000C11F44E
:1018E000882352F0BB0F40F4BF2B11F460FF04C0FB
:1018F0006F5F7F4F8F4F9F4F089557FD9058440F54
:10190000551F59F05F3F71F04795880F97FB991F5E
:1019100061F09F3F79F0879508951216130614061B
:10192000551FF2CF4695F1DF08C0161617061806A8
:10193000991FF1CF86957105610508940895E89483
:10194000BB2766277727CB0197F908950E94B90C2A
:101950000C946C0C0E945E0C38F00E94650C20F018
:10196000952311F00C94550C0C945B0C11240C94E1
:10197000A00C0E947D0C70F3959FC1F3950F50E071
:10198000551F629FF001729FBB27F00DB11D639F31
:10199000AA27F00DB11DAA1F649F6627B00DA11DD7
:1019A000661F829F2227B00DA11D621F739FB00D7D
:1019B000A11D621F839FA00D611D221F749F3327ED
:1019C000A00D611D231F849F600D211D822F762F86
:1019D0006A2F11249F5750409AF0F1F088234AF063
:1019E000EE0FFF1FBB1F661F771F881F91505040CF
:1019F000A9F79E3F510580F00C94550C0C94A00C57
:101A00005F3FE4F3983ED4F3869577956795B79555
:101A1000F795E7959F5FC1F7FE2B880F911D96956F
:101A2000879597F90895283008F027E03327DA01E1
:101A3000990F311D87FD916000966105710539F49C
:101A400032602E5F3D9330E32A95E1F708959F3F82
:101A500030F080387105610509F03C5F3C5F3D93D3
:101A6000913008F08068911DDF93CF931F930F93FF
:101A7000FF92EF92192F987F9695E92F969596955C
:101A8000E90FFF27E653FF4F99273327EE24FF2462
:101A9000A701E70105900894079428F4360FE71E84
:101AA000F81E491F511D660F771F881F991F069446
:101AB000A1F70590079428F4E70EF81E491F561F5A
:101AC000C11D770F881F991F661F0694A1F7059007
:101AD000079428F4F80E491F561FC71FD11D880F01
:101AE000991F661F771F0694A1F70590079420F4AD
:101AF000490F561FC71FD81F990F661F771F881FD2
:101B00000694A9F784911095177041F0D695C79562
:101B100057954795F794E7941A95C1F7E0E7F0E0F9
:101B200068941590159135916591959105907FE296
:101B30007395E118F10A430B560BC90BD009C0F796
:101B4000E10CF11E431F561FC91FD01D7EF47033D8
:101B500011F48A95E6CFE894015030F0080F0AF4AA
:101B60000027021708F4202F2395022F7A3328F03C
:101B700079E37D932A95E9F710C07D932A9589F63C
:101B8000069497956795379517951794E118F10A7C
:101B9000430B560BC90BD00998F023957E91739592
:101BA0007A3308F070E37C932013B8F77E9170616C
:101BB0007D9330F0839571E37D9370E32A95E1F78F
:101BC0001124EF90FF900F911F91CF91DF919927F2
:101BD00087FD90950895FC010590615070400110BB
:101BE000D8F7809590958E0F9F1F0895FB01DC011B
:101BF0004150504030F08D910190801919F400202F
:101C0000B9F7881B990B0895FC0161507040019051
:101C10000110D8F7809590958E0F9F1F08950F9310
:101C20001F93CF93DF93FB01238121FD03C08FEF2F
:101C30009FEF2CC022FF16C0468157812481358139
:101C40004217530744F4A081B1819D012F5F3F4F9C
:101C5000318320838C93268137812F5F3F4F3783D9
:101C6000268314C08B01EC01FB010084F185E02D7B
:101C70000995892BE1F6D80116968D919C911797BD
:101C8000019617969C938E931697CE01DF91CF9174
:101C90001F910F910895FA01AA27283051F12031A0
:101CA00081F1E8946F936E7F6E5F7F4F8F4F9F4FF0
:101CB000AF4FB1E03ED0B4E03CD0670F781F891F32
:101CC0009A1FA11D680F791F8A1F911DA11D6A0F00
:101CD000711D811D911DA11D20D009F468943F91B3
:101CE0002AE0269F11243019305D3193DEF6CF01B2
:101CF0000895462F4770405D4193B3E00FD0C9F778
:101D0000F6CF462F4F70405D4A3318F0495D31FDE4
:101D10004052419302D0A9F7EACFB4E0A695979537
:101D2000879577956795BA95C9F70097610571050D
:101D300008959B01AC010A2E069457954795379557
:101D40002795BA95C9F7620F731F841F951FA01DB1
:061D50000895F894FFCF96
:101D56000100000000000000002F0000000700073F
:101D660000147F147F14242A7F2A12231308646226
:101D760036495522500005030000001C2241000090
:101D860041221C0014083E081408083E08080000FA
:101D9600A06000080808080800606000002010081D
:101DA60004023E5149453E00427F4000426151498E
:101DB600462141454B311814127F102745454539B8
:101DC6003C4A4949300171090503364949493606F5
:101DD6004949291E00363600000056360000081410
:101DE6002241001414141414004122140802015153
:101DF6000906324959513E7C1211127C7F494949E4
:101E0600363E414141227F4141221C7F4949494199
:101E16007F090909013E4149497A7F0808087F0080
:101E2600417F41002040413F017F081422417F400D
:101E36004040407F020C027F7F0408107F3E4141F4
:101E4600413E7F090909063E4151215E7F09192954
:101E560046464949493101017F01013F4040403F23
:101E66001F2040201F3F4038403F6314081463077B
:101E7600087008076151494543007F41410055AA52
:101E860055AA550041417F0004020102044040402A
:101E96004040000305000020545454787F484444D1
:101EA600383844444420384444487F3854545418FD
:101EB600087E09010218A4A4A47C7F080404780003
:101EC600447D40004080847D007F1028440000410E
:101ED6007F40007C041804787C0804047838444465
:101EE6004438FC2424241818242418FC7C080404F0
:101EF600084854545420043F4440203C4040207C31
:101F06001C2040201C3C4030403C44281028441CE7
:101F1600A0A0A07C4464544C4400107C82000000C5
:101F2600FF000000827C10000006090906FFFEFE85
:101F3600FEFEFEFEFEFEFEFEFEFEFEFEFEFEFEFEBB
:101F4600FEFEFEFEFEFEFFFEFEFEFEFEFEFEFE4E5A
:101F56004D4541205363616E20496E697469616C19
:101F6600697A6564004D6573736167652073656C96
:101F760065637465643A20474741004D6573736134
:101F860067652073656C65637465643A20524D43DA
:101F9600004D6573736167652073656C6563746571
:101FA600643A20475341004D65737361676520733A
:101FB600656C65637465643A2047535600446174E2
:101FC600613A202573004D534720436865636B7360
:101FD600756D204F4B004D534720436865636B7307
:101FE600756D204552524F520024475047474100D5
:101FF600244750524D43002447504753410024473D
:0620060050475356000094
:00000001FF
